:1000000000300020E904000035050000390500003B
:1000100000000000000000000000000000000000E0
:100020000000000000000000000000003D0500008E
:100030000000000000000000410500004505000030
:10004000490500004D050000510500005505000060
:1000500031050000310500003105000031050000C8
:10006000590500005D050000610500006505000000
:10007000851900006D0500007105000031050000C4
:100080003105000031050000310500003105000098
:100090003105000031050000310500003105000088
:1000A0003105000031050000310500003105000078
:1000B0003105000031050000310500003105000068
:10040000FFFFFFFFFFFFFFFFFFFFFFFFFEFFFFFFFD
:1004100010B5064C2378002B07D1054B002B02D0DA
:10042000044800E000BF0123237010BDB8F0FF1F97
:10043000000000002041000008B5084B002B03D04D
:100440000748084900E000BF07480368002B03D0B5
:10045000064B002B00D0984708BDC04600000000A6
:1004600020410000BCF0FF1FB4F0FF1F000000009F
:10047000164B002B00D1144B9D46402292029A1A33
:10048000924600218B460F461348144A121A02F076
:100490000DFD0F4B002B00D098470E4B002B00D0CA
:1004A00098470020002104000D000D48002802D0CC
:1004B0000C4800E000BF02F0BFFC2000290000F063
:1004C00053FF02F0A3FCC0460000080000300020EB
:1004D0000000000000000000B8F0FF1F68F1FF1FDF
:1004E000000000000000000072B60A480A490160DE
:1004F0000A6882F30888094880470949094A0A4B73
:100500009B1A03DD043BC858D050FBDC62B6074899
:100510008047000008ED00E000000000E92D000029
:100520004841000000F0FF1FB8F0FF1F71040000F9
:10053000104800471048004710480047104800473F
:10054000104800471048004710480047104800472F
:10055000104800471048004710480047104800471F
:10056000104800471048004710480047104800470F
:10057000104800473105000035050000390500002E
:100580003D05000041050000450500006D2200000A
:10059000852200009D220000B522000025230000D6
:1005A000452300002529000061290000AD28000036
:1005B000A12D0000C52D0000002934D00123002208
:1005C00010B488422CD301242407A14204D28142D2
:1005D00002D209011B01F8E7E400A14204D28142E2
:1005E00002D249005B00F8E7884201D3401A1A435F
:1005F0004C08A04202D3001B5C0822438C08A04296
:1006000002D3001B9C082243CC08A04202D3001B4B
:10061000DC082243002803D01B0901D00909E3E7C5
:10062000101C10BC7047002801D00020C04307B444
:10063000024802A14018029003BDC046D900000044
:100640000029F0D003B5FFF7B9FF0EBC4243891A69
:100650001847C046002941D010B4041C4C40A446A1
:1006600001230022002900D54942002800D540423C
:1006700088422CD301242407A14204D2814202D211
:1006800009011B01F8E7E400A14204D2814202D231
:1006900049005B00F8E7884201D3401A1A434C082E
:1006A000A04202D3001B5C0822438C08A04202D364
:1006B000001B9C082243CC08A04202D3001BDC088C
:1006C0002243002803D01B0901D00909E3E7101CCD
:1006D0006446002C00D5404210BC7047002806D06C
:1006E00003DB0020C043400801E08020000607B47F
:1006F000024802A14018029003BDC0461900000044
:100700000029EBD003B5FFF7A7FF0EBC4243891ABF
:100710001847C0467047C04680B582B000AF7860C9
:100720000A1CFB1C1A70FB1C1B78002B08D07B6872
:10073000DB78DBB208221343DAB27B68DA7007E0B9
:100740007B68DB78DBB208229343DAB27B68DA702D
:10075000BD4602B080BDC04680B582B000AF7860B3
:100760000A1CFB1C1A70FB1C1B78002B08D07B6832
:10077000DB78DBB204221343DAB27B68DA7007E07D
:100780007B68DB78DBB204229343DAB27B68DA70F1
:10079000BD4602B080BDC04680B582B000AF786073
:1007A0000A1CFB1C1A70FB1C1B78002B08D07B68F2
:1007B000DB78DBB208221343DAB27B68DA7007E039
:1007C0007B68DB78DBB208229343DAB27B68DA70AD
:1007D000BD4602B080BDC04680B582B000AF786033
:1007E0000A1CFB1C1A70FB1C1B78002B08D07B68B2
:1007F000DB78DBB204221343DAB27B68DA7007E0FD
:100800007B68DB78DBB204229343DAB27B68DA7070
:10081000BD4602B080BDC04680B588B000AFF8606C
:10082000B9603B60FB1D1A70354B1B78002B01D063
:10083000012360E0324BFA1D12781A70FB1D1B7801
:10084000032B2CD0062B01D0012B51D1FA682C4B55
:100850005A603B1C1833181C02F0F2F93B1C183389
:10086000BA681A60264B59683A1C18323B68081C53
:10087000111C1A1C02F0DCF8214B5B68181C0121CA
:10088000FFF74AFF1E4B5B68181C0121FFF764FF4E
:100890001B4B1C4A9A601A4B1B4ADA602AE0FA6822
:1008A000174B5A603B1C1033181C01F0DFFE3B1C39
:1008B0001033BA681A60124B59683A1C10323B6800
:1008C000081C111C1A1C01F091FD0D4B5B68181CD3
:1008D0000121FFF761FF0A4B5B68181C0121FFF73C
:1008E0007BFF074B094A9A60054B094ADA6001E031
:1008F000042300E00023181CBD4608B080BDC0469C
:10090000D4F0FF1FB92C0000F52C00007D2700005B
:10091000D92700000FB480B582B000AF0D4B1B7813
:10092000002B02D101235B420DE03B1C14333B60E2
:1009300009493A693B68081C111C1A1C00F0DAF8D6
:10094000031C7B607B68181CBD4602B080BC08BCE1
:1009500004B01847D4F0FF1F5D09000090B583B0C4
:1009600000AF78600A4B1B78002B02D101235B4259
:1009700009E0074B9C68064B5A683B1D101C191C6C
:100980000122A0470123181CBD4603B090BDC046FC
:10099000D4F0FF1F80B586B000AFB9607A603B60CD
:1009A0003B1C0F33021C1A70BB687B610EE03B1CC2
:1009B0000F3300229A563B6A101C98473B681B680D
:1009C0005A1C3B681A607B6901337B617A697B68DA
:1009D0009A42ECDBBD4606B080BDC04680B58CB007
:1009E00000AFF860B9607A603B600023FB61FB6890
:1009F000BB61BB695A1CBA6100221A707B68002B6C
:100A000036D0BB681B68FB62FB6A002B07D1BB6951
:100A100030221A70FB690133FB61FB6966E023E059
:100A2000F86A3968FFF716FE031C7B617B693A6838
:100A30005343FA6AD31ABB62BB6A002B06DABB6A5D
:100A40003B623B6A3022D31ABB6202E0BB6A30339E
:100A5000BB627B69FB62BB695A1CBA61BA6AD2B2DB
:100A60001A70FB690133FB61FB6A002BD8D13CE0B3
:100A7000BB681B687B627B6A002B07D1BB69302295
:100A80001A70FB690133FB61FB692FE02AE03B68C8
:100A9000786A191CFFF790FD031C3B613B683A69BB
:100AA00053437A6AD31A3B623B6A092B03D83B6AE9
:100AB00030333B620BE03B1C38331B78002B01D0FA
:100AC000412300E061233A6A9B180A3B3B623B6981
:100AD0007B62BB695A1CBA613A6AD2B21A70FB696E
:100AE0000133FB617B6A002BD1D1FB69181CBD4629
:100AF0000CB080BD80B59CB002AFF860B9607A6080
:100B000000233B660023FB650023BB613B1C4A338B
:100B100000221A7000233B61BB687B667FE17B6C1F
:100B2000252B07D07A6CFB68101C9847BB690133F2
:100B3000BB6171E13B1C4B3301221A7000237B65C2
:100B40000023BB651CE07B6E01337B667B6E1B78EC
:100B50005BB27B647B6C2F2B0DDD7B6C392B0ADC4D
:100B60007A6D131C9B009B185B001A1C7B6CD318BE
:100B7000303B7B6504E07B6E013B7B660123BB65FC
:100B8000BB6D002BDFD006233B657B6E01337B669C
:100B90007B6E1B785BB22E2B25D100233B65002397
:100BA000BB651CE07B6E01337B667B6E1B785BB2A2
:100BB0007B647B6C2F2B0DDD7B6C392B0ADC3A6D53
:100BC000131C9B009B185B001A1C7B6CD318303BDA
:100BD0003B6504E07B6E013B7B660123BB65BB6D1F
:100BE000002BDFD002E07B6E013B7B667B6E013326
:100BF0007B667B6E1B785BB27B647B6C642B1BD04B
:100C00007B6C692B18D07B6C662B15D07B6C462BCC
:100C100012D07B6C782B0FD07B6C582B0CD07B6C5C
:100C20006F2B09D07B6C622B06D07B6C702B03D0B2
:100C30007B6C752B00D0ABE07B6C642B02D07B6CA3
:100C4000692B19D17B681A1D7A601B687B613A1C7D
:100C50001C323B1C1433391C4B3109780091101C99
:100C6000191C01220A23FFF7B9FE031CFB653A1C7D
:100C70001C32FB6DD3183B667B6C582B02D07B6C0F
:100C8000782B20D17B6C782B03D13B1C4B3300227B
:100C90001A707B681A1D7A601B683B613A1C1C3213
:100CA0003B1C1033391C4B3109780091101C191C66
:100CB00000221023FFF792FE031CFB653A1C1C3236
:100CC000FB6DD3183B667B6C6F2B08D07B6C622B63
:100CD00005D07B6C702B02D07B6C752B3BD17B6875
:100CE0001A1D7A601B683B617B6C6F2B08D002DC9D
:100CF000622B0AD018E0702B0CD0752B0FD013E0AC
:100D00003B1C4A3308221A700EE03B1C4A33022275
:100D10001A7009E03B1C4A3310221A7004E03B1C95
:100D20004A330A221A70C0463B1C4A331B78391CCE
:100D30001C313A1C1032381C4B3000780090081CD3
:100D4000111C0022FFF74AFE031CFB653A1C1C32F3
:100D5000FB6DD3183B667A6DF96D3B1C1833F86850
:100D600000902020FFF716FE3B6E002B0FD00AE00C
:100D70003B6E5A1E3A661B785AB2FB68101C9847A5
:100D8000BB690133BB613B6E1B78002BF0D143E0A4
:100D90007B6C632B0ED17B681A1D7A601B68DBB2FB
:100DA0005BB23B643A6CFB68101C9847BB6901332B
:100DB000BB6131E07B6C732B27D17B681A1D7A6095
:100DC0001B68FB64FB6C002B26D0FB6C181C02F02C
:100DD0008FF9031CFB657A6DF96D3B1C1833F868BD
:100DE00000902020FFF7D6FD0AE0FB6C5A1CFA6445
:100DF0001B785AB2FB68101C9847BB690133BB6172
:100E0000FB6C1B78002BF0D106E07A6CFB68101CA1
:100E10009847BB690133BB617B6E01337B667B6E98
:100E20001B785BB27B647B6C002B00D077E6BB69E0
:100E3000181CBD461AB080BD90B585B000AFF860F3
:100E4000B9607A60BB68002B02D101235B421AE0D3
:100E5000FB68012B05D0FB68022B02D001235B420B
:100E600011E00B4B1B78002B02D101235B420AE0FF
:100E7000074B9C68064B59687B68BA68081C111CB4
:100E80001A1CA0477B68181CBD4605B090BDC04623
:100E9000D4F0FF1F90B585B000AFF860B9607A60FC
:100EA000FB68002B02D001235B4211E00A4B1B7848
:100EB000002B02D101235B420AE0074BDC68064BA2
:100EC00059687B68BA68081C111C1A1CA0477B680B
:100ED000181CBD4605B090BDD4F0FF1F80B584B08E
:100EE00000AF7860114B1B68002B02D10F4B104AEA
:100EF0001A600E4B1B68FB600C4B1A687B68D2189B
:100F00000C4B9A4207D901F07BFF031C0C221A609C
:100F100001235B4206E0054B1A687B68D218034B3D
:100F20001A60FB68181CBD4604B080BDE4F0FF1FCA
:100F300068F1FF1F68F5FF1F80B582B000AF7860D1
:100F4000084A0849084BC958084B19407B6898065D
:100F5000C0231B0503401943034BD150BD4602B0CB
:100F600080BDC0460070044004100000FFFFFFF386
:100F700080B582B000AF0120FFF7DEFF00F068FE11
:100F8000031C7B600549E1235A027B68081C111C85
:100F90000322FFF741FCBD4602B080BD00A0064021
:100FA00080B584B000AF786039607B68002B02D0D8
:100FB0003B68002B01D1042332E03B68181C01F090
:100FC00061FF031C1A1C7B681A607B681B68002B7E
:100FD00001D1032300E000233A1C0F3213703B1CA5
:100FE0000F331B78002B03D03B1C0F331B7817E00B
:100FF0007B683A681A617B681A687B689A607B68CC
:101000001A687B68DA607B6800225A617B681A681C
:101010003B68013BD2187B685A603B1C0F331B783E
:10102000181CBD4604B080BD80B582B000AF7860AA
:101030000A1CFB1C1A707B68002B01D1042322E0E0
:101040007B685A697B681B699A421BD27B689A68E5
:101050007B685B689A4204D17B681A687B689A60F7
:1010600004E07B689B685A1C7B689A607B689B687D
:10107000FA1C12781A707B685B695A1C7B685A618B
:10108000002300E00123181CBD4602B080BDC0460D
:1010900080B582B000AF786039607B68002B02D0E9
:1010A0003B68002B01D1042320E07B685B69002BA7
:1010B0001BD07B68DA687B685B689A4204D17B68E6
:1010C0001A687B68DA6004E07B68DB685A1C7B681E
:1010D000DA607B68DB681A783B681A707B685B694A
:1010E0005A1E7B685A61002300E00223181CBD468B
:1010F00002B080BD80B582B000AF78607B68002B05
:1011000001D1042306E07B685B69002B01D1022337
:1011100000E00023181CBD4602B080BD80B500AFC2
:10112000024A034B0349D150BD4680BD00700440C4
:10113000441000000000031080B582B000AF78605A
:10114000024B7A681A60BD4602B080BD60F1FF1F95
:1011500080B582B000AF021CFB1D1A70094B094A12
:101160001278D2B238218A43D1B2FA1D1278D20055
:10117000D0B238220240D2B20A43D2B21A70BD466F
:1011800002B080BD0040064080B500AFFFF7C6FF4B
:10119000114B181C00F00AFF104B181CFFF7CCFF76
:1011A0000023181CFFF7D4FF0D4B002000211A1C50
:1011B00000F0A8FF022100220023081C111C1A1CA9
:1011C00000F012FE074B181C00F06AFD064B074AA0
:1011D0001A60BD4680BDC046183F000000127A006C
:1011E0000B3F0000103F00004CF0FF1F006CDC02C2
:1011F00080B586B000AFF860B9607A607A68012186
:10120000002391425B41DAB27B68102199429B41F5
:101210005B42DBB21343DBB2002B05D0504B181CF2
:1012200001F04AFFFF2397E0BB68002B05D14D4B2F
:10123000181C01F041FFFF238EE03B1C17330022F6
:101240001A70FB68002B08D1BB6830221A70BB688B
:10125000013300221A7002237EE0FB68002B03DDBD
:101260003B1C153301221A70FB68002B03DA3B1C70
:101270001533FF221A703B1C153300229A56FB6867
:101280005343FB603B1C17331B78BA68D31800220A
:101290001A703B1C17331A783B1C173301321A7033
:1012A00038E0FB68181C7968FFF7CAF90B1C1A1C98
:1012B0003B1C16331A703B1C16331B78FA68D31A82
:1012C000181C7968FFF778F9031CFB603B1C163388
:1012D0001B78092B07D93B1C16333A1C163212789F
:1012E00037321A7006E03B1C16333A1C163212785D
:1012F00030321A703B1C17331B78BA68D3183A1C6B
:10130000163212781A703B1C17331A783B1C1733AD
:1013100001321A70FB68002BC3DC3B1C15331B78B1
:101320005BB201330DD13B1C17331B78BA68D3185D
:101330002D221A703B1C17331A783B1C17330132CD
:101340001A703B1C17331B78BA68101C191C00F06C
:1013500013F83B1C17331B78181CBD4606B080BD24
:10136000E83700000438000080B500AF00F00AFA4A
:101370000023181CBD4680BD80B584B000AF7860E6
:1013800039607B68002B05D1264B181C01F094FEB8
:101390007B6842E03B68002B05D1234B181C01F011
:1013A0008BFE7B6839E0012001F06CFD031CBB6003
:1013B000BB68002B05D11D4B181C01F07DFE0023DE
:1013C0002BE00023FB601CE03A68FB68D31A013B6A
:1013D0007A68D3181A78BB681A703A68FB68D31A0F
:1013E000013B7A68D3187968FA688A1812781A70FB
:1013F0007A68FB68D318BA6812781A70FB680133F0
:10140000FB607A68FB68D2183968FB68CB1A013B2D
:101410007968CB189A42D7D37B68181CBD4604B0B4
:1014200080BDC046783A0000A43A00003C39000074
:1014300080B582B000AF78607B68202B01DDC046AC
:1014400020E0124A7968124B0B4004D5013B202161
:1014500049420B4301330121081C9840031C191C0D
:10146000C0235B00D150094A7968094B0B4004D571
:10147000013B202149420B4301330121081C9840C4
:10148000031C1360BD4602B080BDC04600E100E011
:101490001F00008080B584B000AF786039603B1CCD
:1014A0000F3300221A703B1C0E3300221A703B1CB3
:1014B0000D3300221A707B68202B03DD3B1C0F3399
:1014C00001221A703B68032B03DD3B1C0F33012202
:1014D0001A703B1C0F331B78012B2CD07B68002B20
:1014E00000DA03339B101A1C3B1C0E331A707A6807
:1014F000124B134004D5013B0422524213430133E3
:101500001A1C3B1C0D331A703B1C0E331B789B00BE
:101510000B481B18BB60BB681A683B689901FF2326
:1015200019403B1C0D331B78DB00081C9840031C42
:101530001A43BB681A60BD4604B080BD030000803A
:1015400000E400E090B585B000AF78607B681B0CCC
:10155000084A9B18FB60FB68FA6811687A681204F5
:10156000120C0120041C9440221C0A431A60BD4640
:1015700005B090BD0070044080B584B000AFF86045
:10158000B960FB1D1A70FB68BA689200D258084B0C
:101590001A40FB1D1B781902E023DB000B40111CD5
:1015A0001943FB68BA689200D150BD4604B080BDB3
:1015B000FFF8FFFF80B500AF0D4B181CFFF7C2FF0F
:1015C0000C4B181C01210222FFF7D6FF094B181CF7
:1015D00002210222FFF7D0FF074A0749074BCB58E9
:1015E0000721181C8843011C044BD150BD4680BD07
:1015F00009003810009004400070044010100000F2
:1016000080B500AF054B1A68054BDB79DBB2101CC7
:10161000191CFFF709FDBD4680BDC04658F1FF1FEC
:1016200000A0064090B583B000AF514B1B680A2B59
:1016300000D099E0022001F025FC031C7B604D4B9B
:10164000181C2F2100F07CF94B4B181C022100F0D4
:1016500077F9474B1A68FC1C7B68101C191C0A227E
:10166000FFF7C6FD031C2370FB1C1B787A68101C57
:10167000191C00F065F9414B181C062100F060F9B7
:101680003B4B9A68FC1C7B68101C191C0A22FFF754
:10169000AFFD031C2370FB1C1B787A68101C191CFF
:1016A00000F04EF9364B181C092100F049F9304B77
:1016B0001A69FC1C7B68101C191C0A22FFF798FD94
:1016C000031C2370FB1C1B787A68101C191C00F08B
:1016D00037F92A4B181C062100F032F9244B5A68BE
:1016E000FC1C7B68101C191C0A22FFF781FD031CDF
:1016F0002370FB1C1B787A68101C191C00F020F961
:101700001F4B181C092100F01BF9194BDA68FC1C4F
:101710007B68101C191C0A22FFF76AFD031C23704A
:10172000FB1C1B787A68101C191C00F009F9124B7D
:10173000181C022100F004F90F4B181C022100F0C4
:10174000FFF80B4B00229A60094B00221A61084BEC
:1017500000225A60064B0022DA60054B00221A6014
:101760007B68181C01F098FBBD4603B090BDC046D5
:1017700040F1FF1F00F0FF1F44F0FF1F30F0FF1F7C
:1017800038F0FF1F80B500AF144B154A1A60154B97
:10179000154A1A60182001F075FB031C1A1C134B24
:1017A0001A60134B00229A60114B00221A61104BF1
:1017B00000225A600E4B0022DA600D4B00221A60A4
:1017C0000A4B1B68181C1421FFF7EAFB00F09AF87B
:1017D000064B1B68181C00F00DF8F9E738F1FF1FE5
:1017E000011600003CF1FF1F2516000058F1FF1FF5
:1017F00040F1FF1F80B584B000AF78607B68181C93
:10180000FFF778FC031C002B00D075E03B1C0F3366
:1018100000221A707A683B1C0F33101C191CFFF74A
:1018200037FC031C002B00D066E0354B1B685A1CAC
:10183000334B1A603B1C0F331B78402B04D93B1CE5
:101840000F331B785A2B09D93B1C0F331B78602BA5
:101850000AD93B1C0F331B787A2B05D8284B9B6881
:101860005A1C274B9A6047E03B1C0F331B782F2BE9
:101870000AD93B1C0F331B78392B05D8204B5B68EA
:101880005A1C1F4B5A6037E03B1C0F331B78202B30
:1018900027D03B1C0F331B78212B22D03B1C0F334E
:1018A0001B78222B1DD03B1C0F331B782C2B18D000
:1018B0003B1C0F331B782E2B13D03B1C0F331B7894
:1018C0003A2B0ED03B1C0F331B783B2B09D03B1C13
:1018D0000F331B783F2B04D03B1C0F331B782C2B72
:1018E00005D1074BDB685A1C054BDA6004E0044B5A
:1018F0001B695A1C024B1A61BD4604B080BDC0462C
:1019000040F1FF1F80B500AFFFF754FEFFF73CFC2E
:10191000FFF72EFB62B60C20FFF78AFD0C20022198
:10192000FFF7B8FD054B054AD278D2B220210A4311
:10193000D2B2DA700023181CBD4680BD00A006405C
:1019400080B582B000AF7860396011E0C0460C4BC2
:101950001B79DBB2DBB25BB2002BF8DA084B7A689A
:101960001278DA717B6801337B603B68013B3B6036
:101970003B68002BEAD10023181CBD4602B080BD95
:1019800000A0064080B500AF164B1B79DBB21A1CD5
:10199000202313400AD0134B124A1279D2B22021CD
:1019A0008A43D2B21A71104B1B6898470D4B1B79B2
:1019B000DBB2DBB25BB2002B06DB0A4B1B79DBB27E
:1019C0001A1C402313400AD0064B064A1279D1B2A2
:1019D0007F220A40D2B21A71044B1B689847BD4659
:1019E00080BDC04600A0064038F1FF1F3CF1FF1F3C
:1019F00080B582B000AF7860074B074A1168074A8C
:101A000011407A689004C022120302400A431A600F
:101A1000BD4602B080BDC04600700440FFFFF3FF2A
:101A200080B582B000AF7860084A0849084BC958B1
:101A3000084B19407B68180480235B02034019435C
:101A4000034BD150BD4602B080BDC046007004407B
:101A500004100000FFFFFEFF80B584B000AF786087
:101A600039603B1C0F337A6812781A703B1C0F33B5
:101A70003A1C0F3211785F220A401A703B681978BD
:101A80003B1C0F333A1C0F3212780A431A707B68E2
:101A90003A1C0F3212781A70BD4604B080BDC046A1
:101AA00080B584B000AF78600A1CFB1C1A703B1C28
:101AB0000F337A6812781A703B1C0F333A1C0F32BE
:101AC00012780F218A431A703B1C0F33391C0F31D7
:101AD000FA1C097812780A431A707B683A1C0F3294
:101AE00012781A70BD4604B080BDC04680B500AF04
:101AF000074B1B68002B06D10649074A074B081CF9
:101B0000E12100F03FFB024B1B68181CBD4680BD65
:101B100060F1FF1F183B0000203F0000303B000039
:101B200080B582B000AFFFF7E1FF031C7B607B68EC
:101B3000002B01D17B683FE0214B1B78DBB21A1CE4
:101B400038231340DA08FB1C1A70FB1C1B787A68D8
:101B5000111CD9400B1C7B60194B5B78DBB21A1C43
:101B6000302313401A09BB1C1A70BB1C1B78002BB6
:101B700021D0FB1C1B78062B0AD002DC002B17DBC4
:101B800002E0072B0CD013E07B685B097B6012E05E
:101B90007B68181C1421FEF70FFD031C7B600AE014
:101BA0007B68181C0C21FEF707FD031C7B6002E01C
:101BB00000237B60C0467B68181CBD4602B080BD18
:101BC0000040064080B500AF084B9B79DBB21A1C81
:101BD000102313401B0903D1FFF7A2FF031C01E0F0
:101BE000034B1B68181CBD4680BDC0460040064024
:101BF00048F0FF1F80B500AFFFF778FF031C181CEB
:101C0000BD4680BD80B584B000AF78607A680E4B69
:101C10009A4204D83B1C0F3300221A700CE07A68F9
:101C20000A4B9A4204D83B1C0F3301221A7003E07E
:101C30003B1C0F3302221A703B1C0F331B78181CFD
:101C4000BD4604B080BDC0469798000000127A00DF
:101C500080B582B000AF104A104BD25880235B028F
:101C600013401B0C02D0012B05D00CE000F032F821
:101C7000031C7B600AE000F06BF8031C7B607B6850
:101C80005B087B6002E000237B60C0467B68181C19
:101C9000BD4602B080BDC046007004400410000084
:101CA00080B582B000AF7860084A7B685968084BFD
:101CB000D1507B681B78181CFFF7B2FE7B685B78FD
:101CC000181CFFF795FEBD4602B080BD00700440B1
:101CD0004410000080B582B000AF1B4B5B78DBB2D4
:101CE0001A1C0223134006D1174B9B79DBB21A1C36
:101CF0002023134001D0002322E0FFF763FF031CE1
:101D00007B607B68002B01D17B6819E00E4BDB7890
:101D1000DBB21A1C602313405A09FB1C1A700A4BD1
:101D2000DB78DAB2BB1CD2091A70FB1C1978BB1C19
:101D30001A78064B49008A185200D35A7A685343DE
:101D4000181CBD4602B080BD00400640383F000070
:101D500080B582B000AF194B9B79DBB21A1C4023CF
:101D6000134001D1002325E0FFF744FF031C7B60F3
:101D70007B68002B05D112481249134A134B00F01F
:101D800001FA0E4B1B79DBB21A1C1F2313400133DF
:101D90007868191CFEF710FC031C7B60074B5B790D
:101DA000DBB21A1C1F2313401A1C18327B685343E2
:101DB0007B607B68181CBD4602B080BD00400640B9
:101DC000183B000055020000483F00004C3B00005B
:101DD00080B582B000AF021CFB1D1A700023181CD6
:101DE000BD4602B080BDC04680B584B000AFFB1DCB
:101DF0001870BB1D19707B1D1A70424B9B79DBB2AA
:101E00001A1C0C2313409B08FB603E4B9B79D9B2F4
:101E10003B1C0B3301220A401A703A4B1B7ADBB28F
:101E20001A1C0E2313405A083B1C0A331A707A1DE1
:101E30003B1C0A3312781B789A422FD03B1C0B3381
:101E40001B78012B19D1FB68012B06D02D4B1B7879
:101E5000DBB21A1C022313400FD02A4B294A5278B6
:101E6000D2B201218A43D2B25A70C046254B9B7927
:101E7000DBB21A1C01231340F8D1224A214B1B7AF2
:101E8000DBB22F218B43D9B27B1D1B78DB18D8B274
:101E90000E230340DBB20B43DBB21372194B194A1A
:101EA0005278D2B201218A43D1B2BA1D10780122F0
:101EB0000240D2B20A43D2B25A70124B114A12787F
:101EC000D2B203218A43D1B2FA1D12780A43D2B2A8
:101ED0001A70FB68012B04D0FB1D1A7802231340F3
:101EE0000AD0C046074B9B79DBB21A1C01231A406B
:101EF000BB1D1B789A42F5D10023181CBD4604B0C7
:101F000080BDC0460040064080B584B000AF786018
:101F10007B68002B06D12148BE239900204A214B23
:101F200000F030F93B1C0F3300221A707B685A789E
:101F30001F231340D9B23B1C0F333A1C0F321278C7
:101F40000A431A70184B3A1C0F3212781A71164B4A
:101F5000154A5279D2B21F218A43D1B27A68907859
:101F60001F220240D2B20A43D2B25A710E4B0E4A1D
:101F70001279D1B27A6812780A43D2B240210A4368
:101F8000D2B21A71C046084B9B79DBB21A1C4023AF
:101F90001340F8D0BD4604B080BDC046183B0000D9
:101FA0005C3F0000583B00000040064090B585B003
:101FB00000AF78607B681B683C1C0F34181CFFF76F
:101FC00021FE031C23707B681B791C4A101C191C02
:101FD000FFF766FD7B680633184A101C191CFFF7D3
:101FE0003BFD174B164A5278D2B23C218A43D1B2FC
:101FF0003A1C0F3212781201D0B230220240D2B213
:102000000A43D1B27A6852790A43D2B25A707B68D5
:102010005B79002B0ED0094B1B78DBB2DBB25BB2D5
:10202000002B07DAC046064B9B79DBB21A1C022351
:102030001340F8D0BD4605B090BDC04600500640E4
:102040000040064080B582B000AF021C3960FB1D25
:102050001A703B68002B05D125482649264A274B94
:1020600000F090F8264B264A5278D2B202218A43D9
:10207000D2B25A70224B224A1278D1B23B220A4085
:10208000D2B2802149420A43D2B21A70C0461C4BD8
:102090009B79DBB21A1C1C231340082BF7D1184B79
:1020A000174A5279D2B240218A43D2B25A71C046FD
:1020B000134B9B79DBB21A1C20231340F8D13B68E9
:1020C000181CFFF721FF0E4B0D4A5279D2B2402166
:1020D0000A43D2B25A71C046094B9B79DBB21A1C33
:1020E00020231340F8D00023181CBD4602B080BD49
:1020F000183B000064050000703F0000583B0000E2
:102100000040064080B582B000AF3A60FB1D021C63
:102110001A70BB1D0A1C1A703B68002B05D11448AD
:102120001449154A154B00F02DF8FB1D1B78181C9F
:10213000FFF74EFEBB1D1A783B68101C191CFFF7F9
:1021400081FF0F4B0E4A1278D1B23F220A40D2B221
:102150001A70C0460A4B9B79DBB21A1C0C23134041
:102160009B08032BF6D10023181CBD4602B080BD8E
:10217000183B00000D060000843F0000583B0000A3
:102180000040064090B587B002AFF860B9607A6051
:102190003B6005483968FA68BB687C680094FEF7C4
:1021A000B9FB00BEFDE7C046603B000080B584B0CF
:1021B00000AFF860B9607A60BB68032B07D910489C
:1021C000DA23191CFF310F4A0F4BFFF7DBFF7B6847
:1021D000002B12D0F968BA6884235B0012018A18B8
:1021E000D3181B68802252041A43F868B968842304
:1021F0005B0009014118CB181A60BD4604B080BDD0
:10220000A03B0000A83F0000B83B000080B582B0B2
:1022100000AF78607B68002B07D111481E23191C82
:10222000FF31104A104BFFF7ADFF7B6819687B68E0
:102230001B791A1C80235B04081C111C1A1CFFF755
:10224000B5FF7B689B68002B07D07B689A687B682A
:10225000DB687968081C191C9047BD4602B080BD38
:10226000E43B0000983F00005C3C000080B500AFFC
:10227000034B1B68181CFFF7C9FFBD4680BDC04655
:10228000E8F0FF1F80B500AF034B5B68181CFFF739
:10229000BDFFBD4680BDC046E8F0FF1F80B500AF62
:1022A000034B9B68181CFFF7B1FFBD4680BDC046BD
:1022B000E8F0FF1F80B500AF034BDB68181CFFF789
:1022C000A5FFBD4680BDC046E8F0FF1F80B582B0C7
:1022D00000AF786039607B68DB78DBB21A1C1023B2
:1022E000134006D17B689B78DBB21A1C2023134075
:1022F00007D00A4B1B6879683A68081C111C98477C
:1023000006E0074B1B6879683A68081C111C98475F
:10231000BFF34F8FBD4602B080BDC04600F1FF1F26
:1023200004F1FF1F80B500AF044B1B68044A101C6A
:10233000191CFFF7CBFFBD4680BDC046F8F0FF1F5C
:102340000060064080B500AF044B5B68044A101C77
:10235000191CFFF7BBFFBD4680BDC046F8F0FF1F4C
:102360000070064090B585B000AF78607B681B0CAC
:10237000084A9B18FB60FB68FA6811687A681204C7
:10238000120C0120041C9440221C0A431A60BD4612
:1023900005B090BD0070044080B584B000AF786097
:1023A0000023FB6007E00D4A7B689A4200D105E0FC
:1023B000FB680133FB60FB68002BF4D0FB68002B4B
:1023C00006D00749074A084B081C9021FFF7DAFEA0
:1023D000FB68181CBD4604B080BDC04600A0064086
:1023E000083D0000C43F0000203D000090B58DB0C6
:1023F00000AFF860B9607A60BB68002B06D19549E0
:10240000954A964B081CD721FFF7BCFEBB681B689A
:10241000002B06D18F49904A914B081CD821FFF719
:10242000B1FE3B1C2C3300221A8000237B62BB6868
:102430001B68BB6104233B625DE0BB681B683A6AB2
:1024400053437868191CFEF7B7F8031C1A1C3B1C91
:102450002A331A803B1C2A331B88002B03D13B1CD8
:102460002A3301221A803B1C2A331B883A6A5343C1
:102470007868191CFEF7A0F8031C7B61BB681B6819
:102480007A69D31AFB61BB681C683B1C2A331B8822
:1024900001333A6A53437868191CFEF78DF8031C20
:1024A000E21AFB699A4215D2BB681C683B1C2A33AE
:1024B0001B8801333A6A53437868191CFEF77CF88D
:1024C000031CE31AFB613B1C2A331A883B1C2A338A
:1024D00001321A80FA69BB699A4209D8FB69BB616B
:1024E0003B6A7B623B1C2C333A1C2A3212881A80CE
:1024F0003B6A01333B623B6A202B9ED9BB681B6859
:10250000181C6421FEF758F8031C1A1C131C5B00EE
:102510009A18BB699A4201D2524B97E0FB68181C8B
:10252000FFF73AFF504B181CFFF71CFFFB68DB78E6
:10253000DBB20C229343DAB2FB68DA707B6A032BBE
:102540000AD97B6A072B07D8FB68DB7ADBB2022249
:102550001343DAB2FB68DA72FB689B7ADBB21F22A4
:102560009343DAB27B6ADBB2013BDBB21343DAB2EC
:10257000FB689A72FB689B7ADBB21F229343DAB244
:102580003B1C2C331B881B0A9BB2DBB21343DAB211
:10259000FB681A703B1C2C331B88DAB2FB685A703C
:1025A000FB689B78DAB23B1C2F3313218A431A70E5
:1025B000BB681B79002B0BD0BB681A793B1C2F33EF
:1025C0001B781343DAB23B1C2F3310210A431A70D5
:1025D000FB683A1C2F3212789A70FB681B78DBB2CA
:1025E00020229343DAB2FB681A70FB681B78DAB2D8
:1025F000BB685B795B01D9B220230B40DBB213438C
:10260000DAB2FB681A703B1C2F33FA68D2781A7062
:10261000BB689B79002B07D03B1C2F333A1C2F3211
:10262000127808210A431A70BB68DB79002B07D0A7
:102630003B1C2F333A1C2F32127804210A431A70A4
:10264000FB683A1C2F321278DA700023181CBD4642
:102650000DB090BD083D0000D83F0000543D000083
:102660005C3D0000B50400000A00341080B582B063
:1026700000AF78607B68002B07D10D485623191CEA
:10268000FF310C4A0C4BFFF77DFD7B68E1225202C3
:102690001A607B6800221A717B6800225A717B687D
:1026A00000229A717B680022DA71BD4602B080BDBB
:1026B000083D0000E43F0000543D000080B584B0B8
:1026C00000AF78607B681B79DBB21A1C7B685B7992
:1026D000DBB21B021343FB60FB68181CBD4604B051
:1026E00080BDC04680B584B000AF786039603B1CC7
:1026F0000B3300221A703B1C0B331B78DBB2013307
:10270000DAB23B1C0B331A703A6880231B02134069
:1027100006D07B6880225A713A68154B13403B60A3
:102720003A688023DB01134006D07B6840225A714F
:102730003A68104B13403B603A681F2313400AD09D
:102740003B68DAB21F231340DAB27B681A713B6828
:102750001F2293433B603B68002B02D0064BFB607B
:1027600001E00023FB60FB68181CBD4604B080BD7F
:10277000FF7FFFFFFFBFFFFFB404000080B584B000
:1027800000AFF860B9607A60BB68002B05D10E48D5
:102790000E490F4A0F4BFFF7F5FC0DE0C046FB68F2
:1027A0001B79DBB2DBB25BB2002BF8DABB685A1CD8
:1027B000BA601A78FB68DA717B685A1E7A60002B5F
:1027C000ECD1BD4604B080BD083D00000902000008
:1027D000FC3F00004C3D000080B586B000AFF860C3
:1027E000B9607A60BB68002B06D12A48862399001D
:1027F000294A2A4BFFF7C6FC41E032E0FB68181C6F
:10280000FFF75CFF031C7B617A690823134007D044
:10281000FB68181C0821FFF765FF9723DB0034E0F5
:102820007A690423134006D0FB68181C0421FFF7C3
:1028300059FF1B4B29E07A690223134006D0FB683D
:10284000181C0221FFF74EFF164B1EE07A69012388
:10285000134006D0FB68181C0121FFF743FF124B01
:1028600013E0FB681B79DBB21A1C20231340C5D090
:10287000BB685A1CBA60FA68D279D2B21A707B6807
:102880005A1E7A60002BB8D10023181CBD4606B032
:1028900080BDC046083D0000104000004C3D0000D7
:1028A000B9040000BA040000BB04000080B500AF0A
:1028B000044B1A68044B1B680449081C191C9047F8
:1028C000BD4680BD0CF1FF1F08F1FF1F00A00640B0
:1028D00080B582B000AF786039607B681B78DBB26E
:1028E0001A1C102313400AD00B4B1B680B4A396883
:1028F00089008A587968081C111C984709E0084B20
:102900001B68064A396889008A587968081C111CB6
:102910009847BD4602B080BD18F1FF1F10F1FF1FA0
:102920001CF1FF1F80B500AF084B1B68002B06D1C0
:1029300007488123D900074A074BFFF723FC074BC1
:10294000181C0021FFF7C4FFBD4680BD10F1FF1F1A
:10295000BC3D000024400000383E000000600740FD
:1029600080B500AF084B5B68002B06D10748822377
:10297000D900074A074BFFF705FC074B181C01213C
:10298000FFF7A6FFBD4680BD10F1FF1FBC3D000054
:102990003C400000483E00000070074090B585B004
:1029A00000AF78607B681B0C084A9B18FB60FB68D3
:1029B000FA6811687A681204120C0120041C944011
:1029C000221C0A431A60BD4605B090BD0070044049
:1029D00080B584B000AF78600323BB600023FB6048
:1029E0000AE00F4BFA689200D2587B689A4200D1F5
:1029F00006E0FB680133FB60FA68BB689A42F0D3DB
:102A0000FA68BB689A4206D30649074A074B081C76
:102A1000A921FFF7B7FBFB68181CBD4604B080BDB9
:102A200054400000583E00006C400000703E000022
:102A300090B587B000AFF860B9607A60BB68002BD2
:102A400006D17949794A7A4B081CD421FFF79AFBC1
:102A5000BB681B68002B06D17349744A754B081C70
:102A6000D521FFF78FFB3B1C163300221A803B1C3D
:102A7000153300221A7000233B61BB681B681B01E1
:102A80007868191CFDF798FD031C1A1C3B1C1633B3
:102A90001A803B1C16331B88002B03D13B1C1633BA
:102AA00001221A803B1C16331B881B017868191CF5
:102AB000FDF782FD031C1A1CBB681B68D31A3B611F
:102AC000BB681C683B1C16331B8801331B017868EC
:102AD000191CFDF771FD031CE21A3B699A4214D2DE
:102AE000BB681C683B1C16331B8801331B017868CC
:102AF000191CFDF761FD031CE31A3B613B1C1633F7
:102B00001A883B1C163301321A80BB681B68181CDC
:102B10006421FDF751FD031C1A1C131C5B009A185D
:102B20003B699A4201D2444B79E0FB68181CFFF7DD
:102B30004FFF021C414B9200D358181CFFF72EFF89
:102B4000FB68DB78DBB20C229343DAB2FB68DA7005
:102B5000FB681B78DBB21F229343DAB23B1C1633AF
:102B60001B881B0A9BB2DBB21343DAB2FB681A70F4
:102B70003B1C16331B88DAB2FB685A70FB689B78E3
:102B8000DAB23B1C153313218A431A70BB681B79D8
:102B9000002B0BD0BB681A793B1C15331B781343F1
:102BA000DAB23B1C153310210A431A70FB683A1C39
:102BB000153212789A70FB681B78DBB2202293439F
:102BC000DAB2BB685B795B01D9B220230B40DBB280
:102BD0001343DAB2FB681A703B1C1533FA68D278DB
:102BE0001A70BB689B79002B07D03B1C15333A1C2D
:102BF0001532127808210A431A70BB68DB79002B62
:102C000007D03B1C15333A1C1532127804210A43B5
:102C10001A70FB683A1C15321278DA700023181CFF
:102C2000BD4607B090BDC046583E00008040000041
:102C3000943E00009C3E0000F50300006040000050
:102C400080B582B000AF78607B68002B07D10D485B
:102C50005E23191CFF310C4A0C4BFFF793FA7B687B
:102C6000E12252021A607B6800221A717B680022FE
:102C70005A717B6800229A717B680022DA71BD4626
:102C800002B080BD583E00008C400000943E000021
:102C900080B584B000AF78607B681B79DBB21A1C0A
:102CA0007B685B79DBB21B021343FB60FB68181C7B
:102CB000BD4604B080BDC04680B584B000AFF860AA
:102CC000B9607A600DE0C046FB681B79DBB2DBB20D
:102CD0005BB2002BF8DABB685A1CBA601A78FB6842
:102CE000DA717B685A1E7A60002BECD1BD4604B0C5
:102CF00080BDC04680B586B000AFF860B9607A602C
:102D0000BB68002B06D120488F2399001F4A204B17
:102D1000FFF738FA2DE01EE0FB68181CFFF7B8FF3C
:102D2000031C7B617A690823134001D0194B26E00C
:102D30007A690423134001D0174B20E07A690223FB
:102D4000134001D0154B1AE07A690123134002D0D9
:102D5000FD239B0013E0FB681B79DBB21A1C2023C8
:102D60001340D9D0BB685A1CBA60FA68D279D2B283
:102D70001A707B685A1E7A60002BCCD10023181C75
:102D8000BD4606B080BDC046583E0000A4400000CD
:102D9000C43E0000F1030000F2030000F303000052
:102DA00080B500AF044B1A68044B5B680449081CEB
:102DB000191C9047BD4680BD2CF1FF1F20F1FF1F5D
:102DC00000B0064080B500AF044B1A68044B9B6806
:102DD0000449081C191C9047BD4680BD2CF1FF1FFB
:102DE00020F1FF1F00C0064080B500AF034A8823D2
:102DF0005B010021D150BD4680BDC046007004403B
:102E0000014B18687047C046B0F0FF1F084B10B563
:102E1000041C002B02D0002100E000BF054B186805
:102E2000836A002B00D09847201C00F0DBFCC046D2
:102E300000000000BC40000070B50E4B0E4D002499
:102E4000ED1AAD101E1CAC4204D0A300F3589847F5
:102E50000134F8E701F064F9084B094D0024ED1A3C
:102E6000AD101E1CAC4204D0A300F35898470134A7
:102E7000F8E770BD404100004041000040410000C3
:102E80004441000008B5034B011C186800F05EF8CF
:102E900008BDC046B0F0FF1F08B5034B011C186801
:102EA00000F00CF808BDC046B0F0FF1F031C8218EC
:102EB000934202D019700133FAE7704730B5002908
:102EC00040D004390B68002B00DAC9181E4A136879
:102ED000141C002B02D14B60116033E099420FD2D9
:102EE00008680A189A4205D113685268C018086029
:102EF0004A6000E04B60216024E08A4203D8131C42
:102F00005A68002AF9D11D685C198C420BD10968F6
:102F1000691858181960904214D114685268091938
:102F200019605A600EE08C4202D90C23036009E05C
:102F300008680C18944203D114685268001908609C
:102F40004A60596030BDC04634F1FF1F70B503239D
:102F5000CD1C9D430835061C0C2D01D20C2501E02B
:102F6000002D3FDB8D423DD3204B1C681A1C211CD9
:102F7000002913D00868431B0DD40B2B02D90B601A
:102F8000CC181EE08C4202D1636813601AE04868D6
:102F900060600C1C16E00C1C4968E9E7144C2068C2
:102FA000002803D1301C00F091F82060301C291C4F
:102FB00000F08CF8431C15D0C41C03239C438442AE
:102FC0000AD12560201C0B300722231D9043C31A11
:102FD0000BD05A42E25008E0211A301C00F076F87B
:102FE0000130EED10C233360002070BD34F1FF1F9F
:102FF00030F1FF1F70B5051C0E1C002804D082693B
:10300000002A01D100F050FAAC68A3891A0702D552
:103010002369002B19D1281C211C00F0C9F80028B5
:1030200013D00120404245E03178002B1BDAA26921
:10303000934211DA281C221C00F062F8013043424E
:103040005841C0B20028ECD10136A3683278013B68
:10305000A360002AE8D10CE023681970236819786E
:103060000A2903D1E6E7226811702368013323603F
:10307000EAE7002B17DAA269934208DB22680A23E9
:103080001370236819780A2911D1281C01E0281C23
:103090000A21221C00F034F8013043425841C0B2EA
:1030A000002806D0BDE722680A2313702368013385
:1030B00023600A2070BD000008B5034B011C18688E
:1030C000FFF798FF08BDC046B0F0FF1F38B5074CAA
:1030D0000023051C081C2360FDF700FF431C03D1DF
:1030E0002368002B00D02B6038BDC04664F1FF1F61
:1030F0000023C25C0133002AFBD1581E7047000038
:1031000070B5051C0E1C141C002804D08269002A0E
:1031100001D100F0C9F9234B9C4201D16C6808E051
:10312000214B9C4201D1AC6803E0204B9C4200D172
:10313000EC68A369A360A3891A070AD52369002B49
:1031400007D022682369F6B2D01A626990420FDB79
:1031500008E0281C211C00F02BF80028F1D00120E9
:1031600040421DE0281C211C00F01EF90028F6D169
:10317000A3680130013BA36023685A1C22601E70C3
:103180006369984205D0A389301CDA0708D50A2E56
:1031900006D1281C211C00F007F90028DFD1301CC3
:1031A00070BDC046C0400000E0400000004100008B
:1031B000344B70B51D68061C0C1C002D05D0A96988
:1031C000002902D1281C00F06FF92F4B9C4201D13D
:1031D0006C6808E02D4B9C4201D1AC6803E02C4B9D
:1031E0009C4200D1EC68A28993B2190721D4D90678
:1031F00005D40923336040231A43A2813FE05A07D4
:1032000013D5616B002908D0231C4433994202D0A6
:10321000301CFFF753FE00236363A38924229343EA
:10322000A3810023636023692360A38908221343D9
:10323000A381216900290BD1A389A02292001A4001
:1032400080239B009A4203D0301C211C00F09CF983
:10325000A38901221A4005D061690022A2604A4276
:10326000A26103E0990700D46269A260226900208C
:10327000824206D1190604D540221343A3810120BE
:10328000404270BDB0F0FF1FC0400000E0400000B1
:1032900000410000F7B58B89051C0C1C19075ED492
:1032A0006268002A02DC276C002F1ADDE76A002F13
:1032B00017D000222E682A60802252011A4001D0C5
:1032C000626D15E0281C216A0123B847021C411CCD
:1032D0000ED12B68002B0BD01D2B01D0162B02D149
:1032E0002E6000205EE0A38940210B43A38159E0BA
:1032F000A3895F0706D56168636B521A002B01D062
:10330000276CD21B281C216A0023E76AB847A289D0
:10331000411C06D12B68002B03D01D2B01D0162B8E
:1033200019D10023636023692360D70405D5411CAC
:1033300002D12A68002A00D16065616B2E600029E5
:10334000CFD0231C4433994202D0281CFFF7B6FD8E
:103350000020606326E040231A43A28122E0266910
:10336000002EBED027680022BF1B01972660990758
:1033700000D16269A260019F002FB2DD281C216A82
:10338000321C019BA76AB847002806DCA3894022AB
:1033900013430120A381404204E0019F36183F1AE5
:1033A0000197E8E7FEBD00000A6938B5051C0C1C52
:1033B000002A01D100201CE0002804D08369002BE2
:1033C00001D100F071F80B4B9C4201D16C6808E010
:1033D000094B9C4201D1AC6803E0084B9C4200D1F0
:1033E000EC680C22A35E002BE4D0281C211CFFF704
:1033F00051FF38BDC0400000E04000000041000027
:10340000F8B5041C071C4834002C12D0A568666867
:10341000013E0CD4AB89012B07D90E22AB5E0133E0
:1034200003D0381C291CFFF7BFFF6835F0E724687C
:10343000EAE7F8BD002310B5041C03604360836015
:1034400081814366C281036143618361191C082243
:103450005C30FFF72BFD054B24626362044BA362D3
:10346000044BE362044B236310BDC04629360000C1
:103470005136000089360000B536000070B54B1E8D
:1034800068255D430E1C291C7431FFF75FFD041E87
:1034900008D00021016046602A1C0C30A060683210
:1034A000FFF704FD201C70BD836913B5041C002BBD
:1034B00027D18364C3640365124B134A1B6882627D
:1034C000984201D101238361201C00F01FF8606045
:1034D000201C00F01BF8A060201C00F017F804214D
:1034E000E06000226068FFF7A5FFA06809210122C3
:1034F000FFF7A0FFE06812210222FFF79BFF0123E4
:10350000A36113BDBC40000001340000F8B51D4BA1
:10351000071C1E68B269002A02D1301CFFF7C4FFE5
:103520004836B4687368013B05D40C22A55E002DB3
:1035300010D06834F7E73368002B06D1381C04211B
:10354000FFF79CFF3060002801D03668E9E70C23C4
:103550003B6016E001235B42E381201C0123A38131
:1035600065662560A560656025616561A5615C3063
:10357000291C0822FFF79AFC6563A563A564E5642E
:10358000201CF8BDBC400000F0B58B8991B0051C33
:103590000C1C9A0725D40E23C95E002906DAA789D8
:1035A00080231F400FD0002740260EE001AA00F024
:1035B000ADF80028F3DB029BF0273F02184A1F40BA
:1035C000BF187B425F418026F600281C311CFFF7A4
:1035D000BDFC00280CD1A3899A051FD402221343F5
:1035E000A381231C4733236023610123636115E01A
:1035F0000C4B8022AB62A38920601343A38120611E
:103600006661002F0AD00E23E15E281C00F090F8BE
:10361000002803D0A38901221343A38111B0F0BD78
:1036200000E0FFFF0134000038B50C1C0E25495F97
:1036300000F0A4F8002803DB626D1318636503E053
:10364000A289024B1340A38138BDC046FFEFFFFFA4
:10365000F8B51E1C8B89051C0C1C171CDA0505D53A
:103660000E23C95E0022022300F074F8A289054BE4
:10367000281C1340A3810E22A15E331C3A1C00F0CB
:103680001FF8F8BDFFEFFFFF38B50C1C0E25495F92
:1036900000F060F8A389421C03D1054A1340A381BE
:1036A00004E0802252011343A381606538BDC04607
:1036B000FFEFFFFF08B50E23C95E00F015F808BD47
:1036C00038B5084C051C00202060081C111C1A1C71
:1036D000FDF7B2FB431C03D12368002B00D02B6005
:1036E00038BDC04664F1FF1F38B5074C0023051CE8
:1036F000081C236000F056F8431C03D12368002BFC
:1037000000D02B6038BDC04664F1FF1F38B5074CB0
:103710000023051C081C111C236000F04BF8431CFF
:1037200003D12368002B00D02B6038BD64F1FF1F4C
:1037300038B5074C0023051C081C236000F042F834
:10374000431C03D12368002B00D02B6038BDC0463A
:1037500064F1FF1F38B5084C051C00202060081CD0
:10376000111C1A1C00F036F8431C03D12368002BEF
:1037700000D02B6038BDC04664F1FF1F38B5084C3F
:10378000051C00202060081C111C1A1CFDF782FB80
:10379000431C03D12368002B00D02B6038BDC046EA
:1037A00064F1FF1F024B5822012040421A6070470B
:1037B00064F1FF1F024B5822012040421A607047FB
:1037C00064F1FF1F024B582200201A607047C04668
:1037D00064F1FF1F024B5822012040421A607047DB
:1037E00064F1FF1FFEE7C046496E76616C69642094
:1037F000426173652E2041626F7274696E67206941
:10380000746F610044657374696E6174696F6E20D2
:10381000706F696E6572206973204E756C6C000064
:10382000496E76616C696420426173652E20416245
:103830006F7274696E672061746F6900536F75727F
:10384000636520706F696E6572206973204E756CB8
:103850006C2E41626F7274696E672061746F6900CB
:10386000496E76616C6964206469676974732E209F
:1038700041626F7274696E672061746F6900000045
:10388000496E76616C696420617363696920766151
:103890006C7565732E2041626F7274696E670000EB
:1038A000496E76616C696420417267756D656E74EE
:1038B00073000000496E76616C696420536F757205
:1038C000636520416464726573732C206D656D6D52
:1038D0006F76652061626F7274656400496E76610F
:1038E0006C69642064657374696E6174696F6E20BD
:1038F000416464726573732C206D656D6D6F7665C0
:103900002061626F7274656400000000496E766128
:103910006C6964206C656E6774680000536F757223
:10392000636520616E642044657374696E617469B7
:103930006F6E206172652073616D65004D616C6C06
:103940006F63204661696C6564000000496E7661B2
:103950006C696420536F757263652041646472659D
:1039600073732C206D656D636F70792061626F7267
:1039700074656400496E76616C6964206465737473
:10398000696E6174696F6E20416464726573732C33
:10399000206D656D636F70792061626F727465640C
:1039A00000000000257A7520656C656D656E747386
:1039B00020636F70696564207375636365736675F2
:1039C0006C6C790A00000000496E76616C696420B5
:1039D000536F7572636520416464726573732C2044
:1039E0006D656D7365742061626F7274656400004B
:1039F000496E76616C6964204C656E6774682E2030
:103A00006D656D7365742061626F7274656400002A
:103A1000257A7520656C656D656E747320736574A9
:103A20002073756363657366756C6C790A000000BA
:103A3000496E76616C696420536F757263652041CD
:103A40006464726573732C206D656D7A65726F2086
:103A500061626F7274656400496E76616C6964209E
:103A60006C656E6774682E206D656D7A65726F2067
:103A700061626F7274656400496E76616C6964207E
:103A8000536F7572636520416464726573732C2093
:103A90006D656D726576657273652061626F7274B3
:103AA00065640000496E76616C6964206C656E67C0
:103AB00074682E206D656D72657665727365206120
:103AC000626F727465640000257A7520627974658E
:103AD00073206F66204D656D6F7279207265736516
:103AE000727665640A0000004E554C4C20536F7589
:103AF0007263652041646472657373004D656D6F18
:103B000072792046726565642073756363657366B8
:103B1000756C6C79000000002E2E2F64726976653A
:103B200072732F66736C5F636C6F636B2E63000040
:103B3000675F7874616C304672657100675F787496
:103B4000616C333246726571000000006D6367700E
:103B50006C6C30636C6B0000636F6E6669670000AD
:103B6000415353455254204552524F522022202552
:103B70007320223A2066696C652022257322204C2E
:103B8000696E6520222564222066756E6374696FF4
:103B90006E206E616D652022257322200A000000D0
:103BA0002E2E2F647269766572732F66736C5F6454
:103BB0006D612E68000000006368616E6E656C20A8
:103BC0003C2046534C5F464541545552455F444D59
:103BD000414D55585F4D4F44554C455F4348414E0C
:103BE0004E454C002E2E2F647269766572732F66D7
:103BF000736C5F646D612E6300000000696E737406
:103C0000616E6365203C2041525241595F53495ACD
:103C10004528735F646D614261736573290000001C
:103C20006368616E6E656C203C2046534C5F464570
:103C300041545552455F444D415F4D4F44554C45AD
:103C40005F4348414E4E454C00000000636F6E6676
:103C5000696720213D204E554C4C000068616E6420
:103C60006C6520213D204E554C4C00007372634121
:103C700064647220213D204E554C4C006465737481
:103C80004164647220213D204E554C4C00000000E0
:103C9000287372635769647468203D3D203155294B
:103CA000207C7C20287372635769647468203D3DD2
:103CB00020325529207C7C202873726357696474F4
:103CC00068203D3D203455290000000028646573BC
:103CD000745769647468203D3D20315529207C7CEF
:103CE0002028646573745769647468203D3D2032F0
:103CF0005529207C7C202864657374576964746836
:103D0000203D3D20345529002E2E2F6472697665A2
:103D100072732F66736C5F6C707363692E6300003F
:103D2000696E7374616E6365203C20415252415943
:103D30005F53495A4528735F6C70736369426173BE
:103D40006573290068616E646C650000646174616C
:103D500000000000636F6E6669670000636F6E6647
:103D600069672D3E62617564526174655F4270736C
:103D70000000000062617564526174655F42707397
:103D80000000000072696E67427566666572000029
:103D90007866657200000000786665722D3E646189
:103DA000746153697A650000786665722D3E6461BE
:103DB00074610000636F756E740000002E2E2F6416
:103DC0007269766572732F66736C5F7370692E63A8
:103DD00000000000696E7374616E6365203C2041D1
:103DE000525241595F53495A4528735F7370694273
:103DF0006173657329000000636F6E666967202632
:103E00002620737263436C6F636B5F487A00000017
:103E1000636F6E6669670000786665720000000077
:103E200068616E646C65000068616E646C65202674
:103E30002620786665720000735F73706948616E52
:103E4000646C655B305D0000735F73706948616E20
:103E5000646C655B315D00002E2E2F64726976659F
:103E600072732F66736C5F756172742E630000004D
:103E7000696E7374616E6365203C20756172744174
:103E800072726179436F756E7400000068616E64D0
:103E90006C650000636F6E6669670000636F6E6635
:103EA00069672D3E62617564526174655F4270732B
:103EB0000000000062617564526174655F42707356
:103EC00000000000646174610000000072696E67A8
:103ED00042756666657200007866657200000000D3
:103EE000786665722D3E6461746153697A6500007D
:103EF000786665722D3E646174610000636F756E53
:103F00007400000007020000000000000100000033
:103F1000010300000000011000127A00000480007C
:103F2000434C4F434B5F4765744D6367457874431B
:103F30006C6B4672657100008002DC020005B805FA
:103F400080079508000A710B434C4F434B5F476550
:103F500074506C6C3046726571000000434C4F43E6
:103F60004B5F456E61626C65506C6C300000000008
:103F7000434C4F434B5F5365745062654D6F6465AE
:103F800000000000434C4F434B5F426F6F74546F0F
:103F90005065654D6F646500444D415F48616E64D6
:103FA0006C65495251000000444D415F436C6561AE
:103FB000724368616E6E656C537461747573466CA0
:103FC000616773004C505343495F476574496E7392
:103FD00074616E63650000004C505343495F496E45
:103FE000697400004C505343495F476574446566EB
:103FF00061756C74436F6E66696700004C50534383
:10400000495F5772697465426C6F636B696E6700D4
:104010004C505343495F52656164426C6F636B69F6
:104020006E670000535049305F447269766572498B
:10403000525148616E646C65720000005350493102
:104040005F44726976657249525148616E646C656D
:10405000720000000000000000B0064000C00640F2
:10406000000000000B0034100C0034105541525475
:104070005F476574496E7374616E6365000000008C
:10408000554152545F496E697400000055415254C5
:104090005F47657444656661756C74436F6E6669ED
:1040A00067000000554152545F52656164426C6F75
:1040B000636B696E670000004300000050F0FF1F53
:1040C00000000000000000000000000000000000F0
:1040D00000000000000000000000000000000000E0
:1040E00000000000000000000000000000000000D0
:1040F00000000000000000000000000000000000C0
:1041000000000000000000000000000000000000AF
:10411000000000000000000000000000000000009F
:10412000F8B5C046F8BC08BC9E467047F8B5C04616
:08413000F8BC08BC9E46704774
:0841380038C3FF7F0100000005
:04414000390400003E
:044144001104000062
:10414800546F74616C2020416C70686162657420E2
:10415800204D6973632020204E756D6572616C2057
:10416800202050756E6374756174696F6E0000006D
:104178002020202020200000202020202020202077
:10418800200000000D0A000000800000000040012F
:1041980000000000C0400000E040000000410000B6
:1041A8000000000000000000000000000000000007
:1041B800B8400000000000000000000000000000FF
:1041C80000000000000000000000000000000000E7
:1041D80000000000000000000000000000000000D7
:1041E80000000000000000000000000000000000C7
:0841F80050F0FF1F0000000061
:04000003000004E90C
:00000001FF
